:020000040000FA
:100000006802001069010000710100007301000026
:100010007501000077010000790100000000000078
:100020000000000000000000000000007B01000054
:100030007D010000000000007F0100008101000040
:1000400083010000830100008301000083010000A0
:100050008301000083010000830100008301000090
:100060008301000083010000830100008301000080
:100070008301000083010000830100008301000070
:100080008301000083010000830100008301000060
:100090008301000083010000830100008301000050
:1000A0008301000083010000830100008301000040
:1000B0008301000083010000830100008301000030
:1000C00083010000830100008301000000F002F8BA
:1000D00000F03AF80AA090E8000C82448344AAF1A8
:1000E0000107DA4501D100F02FF8AFF2090EBAE8A6
:1000F0000F0013F0010F18BFFB1A43F0010318475C
:10010000CC010000EC010000103A24BF78C878C18F
:10011000FAD8520724BF30C830C144BF04680C600D
:10012000704700000023002400250026103A28BF55
:1001300078C1FBD8520728BF30C148BF0B60704759
:100140001FB51FBD10B510BD00F02FF81146FFF709
:10015000F7FF00F016FA00F04DF803B4FFF7F2FFD6
:1001600003BC00F051F800000948804709480047E7
:10017000FEE7FEE7FEE7FEE7FEE7FEE7FEE7FEE757
:10018000FEE7FEE704480549034A054B70470000B7
:1001900001030000CD00000068000010680200109C
:1001A00068000010704770477047754600F028F8E7
:1001B000AE4605006946534620F00700854618B054
:1001C00020B5FFF7DFFFBDE820404FF000064FF0FD
:1001D00000074FF000084FF0000B21F00701AC467C
:1001E000ACE8C009ACE8C009ACE8C009ACE8C0099B
:1001F0008D4670470446AFF300802046FFF7ADFF01
:10020000004870470400001001491820ABBEFEE70B
:10021000260002007047491058BFC1F140415B10F1
:1002200058BFC3F140438B42EFF300807047B0FAF0
:1002300080F310FA03F10AD0C3F11D0303F58063C4
:100240004FEA41504FEA035202EBD12170474FF081
:100250000000704751EA030C17D41CF5801F58BFEB
:10026000BCF5801F00F10680994218BF704708BF97
:100270009042704707D711F5801F58BF13F5801FB4
:1002800019D499427047894270471CF5801F08D5E0
:10029000BCF5801FF7D58B4218BF704708BF82425C
:1002A00070474FF4001C1CEB410F38BF1CEB430F91
:1002B00001D28B42704770B500F0D8FA9224490001
:1002C0004FF000514FF08053FFF7A5BF0809000021
:1002D0000000001004000000080100000C090000EC
:1002E000040000106402000024010000000000006F
:1002F000000000000000000000000000FFFFFFFF02
:1003000000202021884A116000BF8749096811F048
:10031000400FFAD00321854A11604FF00001844A52
:10032000C2F8A811834A11604FF00101824A11609E
:100330004FF00B01814A11604FF00101A2F104025C
:1003400011604FF0AA017E4A11604FF05501784AC2
:10035000C2F88C1078490968022906D000BF794993
:10036000096811F0806FFAD004E0002000E0401C22
:100370006428FCD90321744A11604FF0AA016C4A29
:10038000C2F88C104FF055016D4A11604FF02301F7
:100390006E4A11604FF00101A2F1040211604FF0AA
:1003A000AA016B4A11604FF05501116000BF694905
:1003B000096811F4806FFAD00321674A11604FF089
:1003C000AA015B4AC2F8AC104FF05501604A1160B7
:1003D0006249634A11604FF00001624A116043F2C2
:1003E0003A01534A1160704756480068C0F30160F3
:1003F000032868D15048006810F0030006D0012897
:1004000023D002283FD003285CD100E000BF4D4834
:100410000068C0F30E0000F101004FEA40014448BB
:10042000D0F88800C0F3074000F10100B1FBF0F004
:100430004D4900FB01F03D490968C9B201F10101D4
:10044000B0FBF1F0494908603CE03E480068C0F369
:100450000E0000F101004FEA40013548D0F8880055
:10046000C0F3074000F10100B1FBF0F0404900FB90
:1004700001F02E490968C9B201F10101B0FBF1F0A8
:100480003A4908601EE02F480068C0F30E0000F1F2
:1004900001004FEA40012648D0F88800C0F3074029
:1004A00000F10100B1FBF0F04FF4FA4100FB01F064
:1004B0001E490968C9B201F10101B0FBF1F02B49F5
:1004C000086000BF2FE01C48006810F0030006D051
:1004D000012810D0022819D0032823D100E000BF42
:1004E00012480068C0B200F101001F49B1FBF0F0F2
:1004F0001E49086016E00D480068C0B200F1010016
:100500001B49B1FBF0F0194908600BE0074800688F
:10051000C0B200F101004FF4FA41B1FBF0F0134911
:10052000086000BF00BF7047A0C10F4004C10F406A
:1005300000C00F40ACC10F400CC10F4084C00F4041
:100540008CC00F4088C00F4080C00F40A4C00F4037
:10055000ACC00F40A8C00F40A0C00F40DE872804E9
:10056000C4C00F40C8C10F4000093D00000000108A
:10057000001BB700002100BF00E0491C8142FCD3F2
:1005800070478EB0A4A103C9CDE90C01A4A103C991
:10059000CDE90A01A4A30FCBCDE90823CDE90601DB
:1005A000A5A30FCBCDE90423CDE90201A6A00068E5
:1005B0000190A6A0006800906FF47030A449086311
:1005C000C0430862FFF79CFEA2480078A04981F86A
:1005D0005000084690F8400040F0FF009E49087027
:1005E0009E48407C40F0F8019C484174984890F83F
:1005F000210040F00700964981F821004FF00201E8
:10060000964841774FF0010141774FF0DF01904864
:1006100081744FF020008E4988704FF0F7018C48AC
:10062000C1744FF000008A49C8704FF0EF018B4849
:10063000C1744FF010008A4908704FF0000514E0B3
:100640000CA8005D874908704FF00401834841768B
:100650004FF4A060FFF78EFF04207D49C8634FF47C
:10066000A040FFF787FF681CC5B2052DE8DB01211C
:100670007A484176002414E00AA8005D79490870A0
:100680004FF00401754841764FF4A060FFF772FF08
:1006900004206F49C8634FF4A040FFF76BFF601C54
:1006A000C4B20AA8005D0028E6D1B3E0684890F81B
:1006B0001780B8F1080F69D110216848C176202150
:1006C000634881764FF4A040FFF754FF2021604833
:1006D00081774FF4A040FFF74DFF1AE000250AE0B4
:1006E00001A8405D00035A4948634FF4A020FFF77A
:1006F00041FF681CC5B22846FFF799FD0646002257
:10070000594BFFF7A7FDEBD34FF4A020FFF732FFC3
:1007100000E0E3E700BF012150484177002414E0E6
:100720000CA8005D4F4908704FF004014B4841761A
:100730004FF4A060FFF71EFF04204549C8634FF443
:10074000A040FFF717FF601CC4B2052CE8DB0121B5
:1007500042484176002414E006A8005D4149087033
:100760004FF004013D4841764FF4A060FFF702FFCF
:1007700004203749C8634FF4A040FFF7FBFE601C1C
:10078000C4B20AA8005D002844D0E5E71021334830
:10079000C1774FF4A040FFF7EDFE02212F484177CB
:1007A000012141774177002514E00CA8405D2D49D7
:1007B00008704FF00401294841764FF4A060FFF71C
:1007C000D9FE04202249C8634FF4A040FFF7D2FEAF
:1007D000681CC5B2052DE8DB0121204841760024C4
:1007E00014E002A8005D1F4908704FF004011B4887
:1007F00041764FF4A060FFF7BDFE04201449C863A2
:100800004FF4A040FFF7B6FE601CC4B206A8005D1E
:100810000028E6D14AE70000380E068001000000FB
:1008200057656C636F6D650053656E736F722069F9
:10083000732048696768000053656E736F722069A2
:1008400073204C6F770000008844221111224488E5
:1008500000C0092050C0092040C0092020C0092044
:1008600023C0092054C00920000029400EF1020EC7
:100870002EF0030E5EF8046B364205D4012A43EBDA
:10088000030515F5001F12D8012841EB010C1CF5DA
:10089000001F0CD80ED14FEAD17C15F5001F0CEBD0
:1008A0004C0C0CF1020C08BF4CEBD37C04E04FF075
:1008B000080C01E04FEAD37C0CEB4C0526FA05F658
:1008C00006F00706B6F1040C06D20EEB860CBDE866
:1008D00070404CF0010C6047DFE80CF0090B02029D
:1008E0004FF000414FF00000A1F5002170BD194606
:1008F0001046012851EB010418BFD4F5001484BF41
:0C090000002001F0004170BD00093D0026
:04000005000001698D
:00000001FF
